:020000041000EA
:1000000000B5324B212058609868022188439860DF
:10001000D860186158612E4B002199600221596106
:100020000121F02299502B49196001219960352056
:1000300000F044F80222904214D00621196600F024
:1000400034F8196E01211966002018661A6600F04E
:100050002CF8196E196E196E052000F02FF8012189
:100060000842F9D1002199601B49196000215960AB
:100070001A491B48016001219960EB211966A021F2
:10008000196600F012F800219960164914480160C1
:100090000121996001BC002800D000471248134993
:1000A000086003C880F30888084703B5996A0420EC
:1000B0000142FBD001200142F8D103BD02B5186610
:1000C0001866FFF7F2FF186E186E02BD00000240BE
:1000D000000000180000070000035F00212200005C
:1000E000F4000018222000A00001001008ED00E03C
:1000F00000000000000000000000000074B24E7A12
:1001000000200420F7010010C3010010C5010010F9
:10011000C1010010C1010010C1010010C101001097
:10012000C1010010C1010010C1010010C701001081
:10013000C1010010C1010010C9010010CB01001065
:10014000CD010010CD010010CD010010CD01001037
:10015000CD010010CD010010CD010010CD01001027
:10016000CD010010CD010010CD010010CD01001017
:10017000CD010010CD010010CD010010CD01001007
:10018000CD010010CD010010CD010010CD010010F7
:10019000CD010010CD010010CD010010CD010010E7
:1001A000CD010010CD010010CD010010CD010010D7
:1001B000CD010010CD010010CD010010CD010010C7
:1001C00000BE00BE00BE00BE00BE00BEEFF3058054
:1001D000103800BEF2EB8871C0610510E0610510B7
:1001E0003402001090A31AE700201F49086006C8D7
:1001F00081F3088810471D48006800282FD10DA4FE
:100200000ECC002902D000F012F8F9E71849194A7B
:10021000002000E001C19142FCD1174988471749ED
:1002200088471749884700BEFDE701C901C29A42C5
:10023000FBD37047E0610510C00000207419002056
:10024000947A05100000042000000420947A051020
:10025000001004200010042000000000704709482E
:1002600001F040F90047000008ED00E0000000D078
:1002700098190020F8E10020C10B0110A509001019
:100280007D0B01105756000006005250ABB360536F
:10029000C057051006005250861C0302D0570510A7
:1002A000060052505422A29DEC57051005005250F2
:1002B000DE65F468947A0510F8B5C04610B5064CB2
:1002C0002378002B07D1054B002B02D0044800E017
:1002D00000BF0123237010BDF01A002000000000B1
:1002E000A0920110044B10B5002B03D00349044821
:1002F00000E000BF10BDC04600000000F41A00205E
:10030000A092011070B52021012012F0D5F9041E31
:100310000BD02E2009F022FA051EA06009D0220081
:10032000084909F0DFF9200070BD074812F09AFB78
:10033000F9E7064812F096FB200012F0E1F92C00D4
:10034000F1E7C04609080010A0920110BC9201100C
:1003500070B5050010F006F9A02292003021362079
:1003600004F084FD0400466830220021300012F0C1
:10037000D3F91B233370A86860332A00210009F0E9
:1003800035F9200004F034FD10F0F6F870BD0000DF
:1003900070B5012100200CF0F7FAD0242406802546
:1003A0006D056561C82002F0BBFC002100200CF047
:1003B000EBFAA561C820800002F0B2FC312012F0F7
:1003C000F3FA034B1B68986815F028F870BDC04617
:1003D000400F002070B5012100200CF0D5FAD02488
:1003E000240680256D056561642002F099FC0021DA
:1003F00000200CF0C9FAA561E120800002F090FC19
:10040000302012F0D1FA034B1B68986815F006F8FB
:1004100070BDC046400F002010B5002100200CF038
:10042000B3FAD0231B06802252059A61FA2080007D
:1004300002F076FC582012F0B7FA034B1B6898685C
:1004400014F0ECFF10BDC046400F002010B5002492
:1004500002E0FFF79DFF0134142C07D8A300044AE3
:100460009B58002BF5D1FFF7B5FFF4E710BDC04650
:10047000B80D0020F0B5C64600B584B08046150022
:100480008F0800240AE001AB30221A553100280001
:1004900011F0DEFC0D000134A74214DDA30042463A
:1004A0009E583100280011F0D3FC0128EBD101AB9C
:1004B00031221A550A4A136801331360E6E7FFF741
:1004C00089FF002C07DD013C01AB1B5D312BF6D110
:1004D000FFF75EFFF5E704B080BCB846F0BDC0464C
:1004E00060CF002010B57C2012F05EFA064B1B682E
:1004F000DB0705D4FFF74CFF034B00221A6010BD49
:10050000FFF768FFF8E7C04660CF002030B585B040
:100510008AE0514803214156022282560024035F9B
:10052000643B05240457807940B24C4D2D68002D62
:1005300000DC86E04A4D029501900094494812F093
:10054000C1FA464B1B68002B00DC7CE0464B0122C5
:100550005A6400229A64FFF779FF7C2012F024FA93
:10056000424D2B68986814F059FF3B4C0622A25666
:100570001C213F48FFF77EFFFFF7B4FF7C2012F0FD
:1005800013FA2B68986814F049FF0522A256182127
:100590003848FFF76FFFFFF7A5FF7C2012F004FA41
:1005A0002B68986814F03AFF0322A25618213248AB
:1005B000FFF760FF7C2012F0F7F92B68986814F0C1
:1005C0002DFF0422A256002A43D00C212B48FFF70E
:1005D00051FF7C2012F0E8F9244C2368986814F04D
:1005E0001DFF1D4D0222AA5614212548FFF742FF88
:1005F0007C2012F0D9F92368986814F00FFF0023CB
:10060000EA5E643A20211F48FFF734FFFFF76AFFD4
:100610007C2012F0C9F92368986814F0FFFEFFF7F8
:10062000FBFE0A2012F0C0F90B4C200014F09AFDDA
:100630000423E356002B00D06BE7074B07221A7107
:1006400067E7114D77E7084B00225A6401329A643C
:1006500081E70732B9E7C04674E10020F0210020AD
:10066000D8920110E0920110B80D0020400F002038
:100670002C95011014950110F094011008950110AB
:10068000489501105C950110D4920110F0B587B027
:100690000400002901D1002A15D1A569002D54DCE0
:1006A00002F0E8FA02000B1E57DB34480021121852
:1006B0004B41002B57DB002B59DB22616361002388
:1006C000237107B0F0BD3C20002113685468C018A6
:1006D000614110605160100015F034F90400C168E8
:1006E00003695A1C4369264884466344A5686068C8
:1006F00084462668A769206A002824DD21480490E2
:10070000039702966046019000951F4812F0DAF9AF
:100710001E4863690380236901338370E368C370F3
:10072000A3684371636883712368C371A36903710C
:10073000226A174B1A6014F0E1FC4020002102F0FD
:10074000B9FAFFF7E3FE1348D9E701F0EDFF2900FE
:1007500002F0B4F80023A361A2E70F4B0F4A3F2138
:100760000F4810F00FFA012252420E4BA3E70A4B3A
:100770000A4A3F210A4810F005FAC04680C3C90161
:100780006C0700000C9301101493011074E1002019
:10079000F0210020D492011054930110D89401103C
:1007A00070930110FFFFFF7F10B5080014000029AF
:1007B0000BD00B6813600BF0B9FF0100084812F072
:1007C00081F92000FFF7C4FD10BD064812F04AF978
:1007D0000121002249422000FFF758FFF4E7C046FC
:1007E000D4930110E493011010B50C00054812F0E9
:1007F00039F90121002249422000FFF747FF00207C
:10080000002110BDFC930110F0B5C64600B584B0C0
:10081000050014001E000AAB1F880021100004F020
:10082000FFFD0723034098460121200004F0F8FD56
:1008300033682A68934201D17B2F0FD01A4812F0F7
:1008400011F90121002249422800FFF71FFF200073
:1008500004F0CEFA04B080BCB846F0BD2389302B3A
:10086000ECD14346042BE9D10028E7D001AE0027A4
:100870000197243304223100200004F0D3FC3378A4
:100880001B06727812041343B27812021343F278F3
:100890001343064A944663440293039702AA002135
:1008A0002800FFF7F3FED2E7109401108081557CF9
:1008B000F0B585B0FFF726FD041E1DD105B0F0BDD3
:1008C0002F4B304A3F21304810F05CF92C4B2D4A19
:1008D0003F212D4810F056F9012252422B4B27E0C0
:1008E000274B284A3F21284810F04CF96B1D3CD17A
:1008F000FA20800002F014FA02F0BCF902000B1E8C
:10090000DEDB20696169801A99410029F0DA2379D8
:10091000002BEDD101F008FF050002F0ABF9060055
:100920000F1ED3DB1A4A002392197B41002BD3DB25
:10093000002BD5DB01260296019416490091280070
:1009400001F008FFA0610FF00DFE2300124A210004
:10095000124803F0E5FB05000FF00EFE2671002D96
:10096000C4D12000FFF7F4FCC2E70D4812F07AF87A
:100970000121002249422000FFF788FEB8E7C04667
:1009800054930110D894011070930110FFFFFF7F62
:1009900080969800E9070010A9070010289401101C
:1009A000E893011010B512F099F81F4802F0B8F959
:1009B00001221E491E4815F025FE431C17D01C4875
:1009C00014F064FF01001B4812F07CF814F060FB87
:1009D0000CF0F6F800280ED11C2000F07DFFD0238B
:1009E0001B06802252055A620BF0AEFF0BE0124844
:1009F00012F068F8E3E7114812F034F8012411E02E
:100A00000F4812F02FF80F4B0F4A104910480CF006
:100A10006FF8041EF4D10F4812F024F8FFF748FFD6
:100A20000CF0B6F8200010BD8813000038940110B7
:100A300058940110749401105C9401107C9401107E
:100A4000949401101027000004004000C09401108D
:100A5000CC940110A894011010B5064B8B4202D122
:100A600008F098FA10BD044B044A1821044810F00D
:100A700089F8C046200E00207C9501104496011094
:100A80009C950110F8B50400204B994212D1012326
:100A90000B7208F0A9FA0500431C11D11C4B186811
:100AA00059681C4B9860D96023685B69194920001C
:100AB0009847F8BD184B194A1D21194810F062F8E3
:100AC00002F0D8F806000F1E10DBFA229200002375
:100AD0002800002111F07AFD36184F41002F0BDB62
:100AE000002F0DDB0B4B9E60DF60DDE70D4B0E4AE8
:100AF0003F210E4810F046F8012676420C4FEFE7F2
:100B0000084B094A3F21094810F03CF80C0E002020
:100B1000A0A40110200E0020FC9501105C9601108D
:100B20009C950110549301102C96011070930110A4
:100B3000FFFFFF7F10B50400094B1B78002B08D086
:100B4000084901230B722368DB69200098470120C4
:100B500010BD02F00FFD024B01221A70F0E7C046F3
:100B6000E8E100200C0E002010B5040003689B692A
:100B70000349984723681B6A02492000984710BD23
:100B8000200E00200C0E002000207047704700004F
:100B900010B502F06FF8002906DB0BD0FA229200A4
:100BA000002311F0BBF910BD054B064A3F21064852
:100BB0000FF0E8FFFA21890011F072F9F3E7C0465F
:100BC000549301102C96011070930110083000E02E
:100BD00018000368002B03D08B42F9D1002002E0FB
:100BE00001600B6001207047083000E018000368C6
:100BF000002B05D08B42F9D10B680360012000E087
:100C000000207047043000E018000368002B03D078
:100C10008B42F9D1002002E001600B600120704797
:100C2000043000E018000368002B05D08B42F9D196
:100C30000B680360012000E000207047F8B5060053
:100C40008068002833D002F015F8002906DB040084
:100C50000D0008239C46B44400220CE0154B164AB4
:100C60003F2116480FF08EFF154B164A42211648B9
:100C70000FF088FF9C4663461B68002B12D02000B3
:100C800029009E68DF68801BB9410029F2DB34002F
:100C90003D000E490A684968724079400A43E3D032
:100CA0006246E7E7002A03D0106803681360F8BDC6
:100CB0001000FCE754930110049701107093011089
:100CC000709601101C97011094960110A0A40110B9
:100CD000F0B583B0104B5C681B6800930194836887
:100CE00004E0DC689B68009301940B00002B0CD09F
:100CF0001968009C019D9E68DF68A41BBD41002D02
:100D0000EFDCF2D1002CECD1EFE7009B019C0361FA
:100D1000446103B0F0BDC046A0A4011070B5060048
:100D20000D0002E04B68280098472800FFF786FF77
:100D3000011EF7D16C6800E02468002C09D0237AEA
:100D4000002BF9D000232372210028006368984704
:100D5000F2E72800FFF7BCFF2B696C693360746011
:100D6000300070BD034B1B6802201840431E9841A1
:100D7000C0B2704700C0064010B5104A104B1218A0
:100D80004B419900900F0843990F504059400D4A2C
:100D90000D4B11F01BFC03004A01C00E1043CA0E9C
:100DA00058405140094A0A4B11F010FC03004A0018
:100DB000C00F1043CA0F5840514010BD157C4A7FE8
:100DC000B979379EB9E5E41C6D4758BFEB11311373
:100DD000BB49D094F0B5C64600B584B002000B0004
:100DE00013498C461BE0614601C900908C460021E6
:100DF0000191910E9F010F4396010098019980196E
:100E0000794102900391110C1D040D4314040298C2
:100E1000039900196941801A994102000B000549A4
:100E20008C45E0D91000190004B080BCB846F0BD74
:100E3000001C0420FF1F0420F0B5CE46474680B5B5
:100E400083B080460368446800930194030080687F
:100E5000D96801E001F00EFF009C019D23002B43A7
:100E600002D103000B43F5D0009C019DA60FAB00FF
:100E70003343A2002E002500AD185E416B0E99464B
:100E8000F3019C464B46624613431F00730EEA0172
:100E900013431E005B0F9C46FB0064462343F20095
:100EA00092197B41009C019D60406940260A2F06F3
:100EB0003E432D0A009C24062C43444035004D40FF
:100EC000070C0E043E4307047C40754046463460E0
:100ED00075604C01C50E2C434001C90E0843B46037
:100EE000F0601000190003B0C0BCB946B046F0BDB8
:100EF000F0B5DE4657464E464546E0B583B0019014
:100F0000574B9B69DB0410D5564BDA6BE02313403B
:100F1000402B0AD0EFF305839846019B002B0AD0A3
:100F200000239946002400258AE04F4B4F4A812137
:100F30004F480FF027FE4F4B4C4A86214C480FF08C
:100F400021FE4D4B1868596801F036FDEFF310860D
:100F500072B64A4B1B68002BFBD0BFF35F8F464B2A
:100F600019685A688A4516D0BFF35F8F434B002239
:100F70001A6086F310885B46002B5ED13E4B1A68E0
:100F800092465F684346002BDBD03B4B186859689C
:100F900001F07CFEDAE7BA42E6D120002900001910
:100FA00069412F4BDA690123134003431C000D00F4
:100FB00001F060FE02000B1E23DB0A200021121844
:100FC0004B41002B23DB002B25DB2B490A604B60B8
:100FD00001994B1E4B452DD1294A20235B42CB184A
:100FE0001FD4116899400B00126801998A4022436E
:100FF0002B4314001D00224B1C605D6001239B46A7
:10100000B2E7204B204A3F2120480FF0BBFD0122D0
:1010100052421F4BD7E71B4B1B4A3F211B480FF087
:10102000B1FD202301981B1A1168D94053688340F1
:101030000B43D9E701239B4696E701239C46E144F5
:10104000019B994502D200239B4697E72000290087
:1010500003B0F0BCBB46B246A946A046F0BDC046B0
:1010600000000640008000404C970110909801104D
:1010700014980110D45E0510E81A0020300100D049
:10108000901900205493011078980110709301106A
:10109000FFFFFF7F10B588B03B4C20686168FFF709
:1010A00099FE20606160FFF767FE049B5840059B36
:1010B000019359400490059102A800F011F902989B
:1010C0000399FFF759FE069B01935840079B019334
:1010D0005940069007914020FFF70AFFFFF74CFEAA
:1010E000049B5840059B019359400490059101F0E1
:1010F000C1FDFFF741FE069B01935840079B0193FA
:10110000594006900791EFF3108472B61F4B1B688D
:10111000002BFBD0BFF35F8F1D4B1B78002B24D11E
:10112000032B09D85A1CD2001A498C4662445268D3
:101130001F2A03D00133F3E701235B425A1C1DD061
:10114000DBB2154A13700133DB00124A9446634444
:1011500005225A6004A8FFF76FFE102204A90F4869
:1011600011F0E0FA0A4B01221A70BFF35F8F074BB0
:1011700000221A6084F3108808B010BD084B094A99
:10118000E92109480FF0FEFC78190020300100D059
:10119000F2E1002000000340E1E10020801900207E
:1011A0006C980110B09801101498011070B586B0B9
:1011B0003E4B1B78002B00D16EE010223C4902A868
:1011C00011F0B0FA3B4B1C78E4B201F053FDFFF78D
:1011D000D3FD029B5840039B019359400290039119
:1011E0000120FFF785FEFFF7C7FD049B01935840E0
:1011F000059B01935940049005912F4B1A78531C7D
:10120000DB002E4958582E4B984248D00021FFF75A
:10121000B3FD029B5840039B0193594002900391F8
:10122000EFF3108672B6274B1B68002BFBD0BFF381
:101230005F8F204B1B78DBB2A34213D01C4B02996B
:101240001A685140039A01925868424002910392F1
:101250009A68DB68049901914A40059901914B40D5
:101260000492059302A8FFF7E7FD05000C00102289
:1012700002A90F4811F056FA0E4A13780133DBB277
:101280001370BFF35F8F0F4B00221A6086F3108834
:101290002800210006B070BDFFF7FCFE8DE701328B
:1012A000D2000B000021D150B0E7C046F2E100208F
:1012B00080190020E2E10020E1E10020000003406D
:1012C000FFFFFF00300100D010B5FFF76FFF10BD2A
:1012D00010B5024800F03CF810BDC04648DF0020C1
:1012E00010B50822014911F01DFA10BD48DF002099
:1012F00010B5002901D000230AE0114B114A1F311B
:1013000011480FF03FFC00240DE03732C254013386
:101310004A1E9A420FD90F2B0DD85A080B4CA25CCB
:10132000DC07F0D40424224114000F222240092AB1
:10133000EBDC3032EAE7C0180023037010BDC04672
:10134000C09801102C990110C898011048DF0020A6
:1013500070B588B0040004AD00260496092200216F
:1013600005A811F0D9F900960922002101A811F071
:10137000D3F94B232B700D226946280017F000FF8C
:10138000002304E05A1D69468A5CE2540133072BAE
:10139000F8DD08B070BD0000EFF3108072B6034BAB
:1013A0001B68002BFBD0BFF35F8F70472C0100D070
:1013B000BFF35F8F024B00221A6080F310887047E2
:1013C0002C0100D0F8B506000C001500FFF7E4FF73
:1013D000E308F718F15C07222240012393400B42F7
:1013E00005D1DBB20B433B70FFF7E2FFF8BD2100F4
:1013F00028000FF061FCF0B583B0060001911400E5
:101400001F00FFF7C9FF00E00134BC420CD8E3081D
:10141000F518F35C0721214001228A401A42F3D1DA
:10142000D2B21A432A7001E001246442FFF7C0FFE0
:10143000002C02DB200003B0F0BD019B002BF9D093
:1014400008980FF039FC000070B505000C00FFF79C
:10145000A3FFE308EE18EA5C07210C400123A34038
:10146000134204D09A433270FFF7A2FF70BD034BC2
:10147000034A2C3103480FF085FBC046D49A011073
:10148000549B0110F49A0110002307E0054A9A18B2
:101490009200BFF35F8F0021116001331F2BF5D93C
:1014A0007047C04640000034054A1078431CDBB248
:1014B0001370172B02D9130010221A707047C04600
:1014C000380E002000B583B00100044B00931F23A9
:1014D00018220348FFF78FFF03B000BD649B011083
:1014E000FC21002010B5010018231B88142210884D
:1014F000984710BD10B5010018231B8816221088CC
:10150000984710BDF0B5C64600B507000E0000258F
:101510000123984600E00135B5420AD2AC003C19DF
:101520002068FFF7DFFF20600028F4D100239846F1
:10153000F1E7404680BCB846F0BD0000F8B5DE4695
:1015400057464E464546E0B505000F0092460A9ABA
:10155000934250D31A0E91461E020A9A002330007D
:10156000494610F0DBFC80466C006419A400304B47
:101570009C4664446368834200D260602B1FDBB2E8
:101580009B46012B3DD9C0239B012343802212019E
:101590001A60AB00274A9958002907D0506910F00B
:1015A0007FFC431C5800C0180338FDD253465A0133
:1015B00023685A40E0231A4080235B0123431A60CA
:1015C0005A46012A28D980239B01234380221201F5
:1015D0001A6043466360424600233000494610F0DB
:1015E0009DFCAD00134B58510120F0BCBB46B246E8
:1015F000A946A046F8BD104B104A332110480FF001
:10160000C1FA012FBFD1C0239B01234303221A60DB
:10161000A368DB07FCD5C9E72168794003220A40AB
:101620001A60A2680123BB401342FAD0CBE7C04640
:101630000080004000220020809B0110F49B0110DC
:10164000949B011030B583B00C2001F00DFFFFF723
:1016500089FB00280DD0002304E099002D4A2E4874
:1016600088500133092BF8D92A4B2C4A5A6203B00F
:1016700030BD2B4B00229A6701F068FF294B0122F5
:101680001A60274B5B6C012BFBD1274B03221A609E
:10169000234B9B6B012BFBD1013300930433234A73
:1016A0000121234801F050FE05230093214A012126
:1016B000214801F049FE214B009300220221042021
:1016C000FFF73CFF1E4D00952B0000220121052055
:1016D000FFF734FF104C0094230000220021072064
:1016E000FFF72CFF00942300002200210820FFF7C1
:1016F00025FF0A4B00932300002200210920FFF759
:101700001DFF00952B00002200210620FFF716FF89
:10171000ADE7C04600220020006CDC021BB70000D1
:10172000008000403CB0004030B00040002F6859BD
:1017300000800240008C864700C00240001BB700BA
:10174000405973078000014BC058704700220020A9
:1017500010B58300084A944663441C6840226240E6
:10176000C02414408022520113431C60C000034B6C
:101770009C466044416010BD04C0014000400140EF
:1017800080000B4B9C46604400290DD00823002AA2
:101790000CD004221343026853400C2213408022D1
:1017A00052011043036070470023F0E70022F1E785
:1017B00004C00140002909D08000094B9C466044C8
:1017C00080239B0118430223036070478000044B71
:1017D0009C466044C0239B01184302230360F4E746
:1017E00004C0014070B5D0231B061B689D00094C46
:1017F0002C59204207D19B002043064C18510D2044
:1018000000F042F970BD044B044ACC2104480FF0AB
:10181000B9F9C04634DF0020049C0110DC9C0110A3
:10182000309C011010B50400D0231B061B689B00E0
:101830000A4A9B5818420BD00D2000F03FFAD023E3
:101840001B061B6805499B005A58A2435A5010BDFD
:10185000034B044AD62104480FF094F934DF0020EA
:101860008C9C0110B89C0110309C01100723034090
:101870009B00C00899403C308000014BC15070472C
:1018800000400140F8B507000C0016001D00FFF7EE
:10189000EDFFFB089B00ED180720384080008440D6
:1018A000002E04D080239B011D432C60F8BDC02373
:1018B0009B011D432C60F9E710B5D0231B061B6864
:1018C000002B03D0024BFFF7DDFF10BD014BFAE701
:1018D000304101400041014010B501238340D02236
:1018E0001206936293610521FFF732FF10BD0000DD
:1018F000074B9B68103080001950BFF35F8FBFF318
:101900005F8F044B0021196082F310887047C04636
:1019100000ED00E0240100D01F23181A70470000DA
:1019200010B5091A081F0A4B9C466144094A9142A6
:1019300008D8C30706D440104005400D064B184395
:1019400080B210BD054B064AA32106480FF01AF9D4
:10195000FC070000FE0F000000E0FFFF109D0110DB
:101960009C9F0110409D011010B5091A04394C08C4
:10197000090B08D14905490D064A11430180064B60
:101980002343438010BD054B054AAB2105480FF0AA
:10199000F9F8C04600F0FFFF00F8FFFF9C9D011022
:1019A000709F0110409D011001238340034A10687D
:1019B0001840431E9841C0B27047C04600E100E0A5
:1019C000002904D0034B1860034B18607047034B89
:1019D0001860FBE780E200E000E100E080E100E069
:1019E00010B5012383401800FFF7EAFF10BD000087
:1019F00001238340014A13607047C04600E200E0C3
:101A0000024B9B6810308000C058704700ED00E02A
:101A100010B5FFF7F5FF002805D0054BC01A2F2899
:101A200003D8012010BD0020FCE70020FAE7C046E3
:101A30003C0E002070B504000D00EFF3108672B666
:101A40000C4B1B68002BFBD0BFF35F8F2000FFF710
:101A5000D7FF094B984201D0A84205D13200290096
:101A60002000FFF745FF70BD044B054A862105485D
:101A70000FF088F8240100D0CD010010AC9D0110BA
:101A8000D09F0110409D0110F0B5DE4657464E46EE
:101A90004546E0B589B0814601911500EFF3108A03
:101AA00072B6744B1B68002BFBD0BFF35F8F724B79
:101AB0000027DF57002F40DB7C00E419A4006F48AB
:101AC00024180622A2566C4B1A706D4B9A684B462E
:101AD00010339B00D35898461E001B1A2F2B38D961
:101AE000684B98452FD105AE674B33807B009B46F2
:101AF000D8198000614B9846404402306349FFF793
:101B00000FFF7080624BB380FF23B371F571019BAF
:101B100007935F44BF0047440ECE0EC701231C430A
:101B2000A046524641464846FFF7E2FE09B0F0BCE7
:101B3000BB46B246A946A046F0BD564B564AD721F1
:101B400056480FF01FF8564B534ADE2153480FF00A
:101B500019F8C04340440C2110F0A2F9002912D119
:101B600001239E43B34633000026DA79AA4211D9F5
:101B70000621595600290CDB4A00521892001E001B
:101B80003E4B9B18F1E7474B434AEA2143480EF08E
:101B9000F9FF1E00002E3AD005AB434A1A80813A65
:101BA0005A800623F3560293002B17DA3F4805AB01
:101BB0009B469880029A9A71DD71019A0792301DB6
:101BC0002100FFF7ADFEB080B7717B00DB199B00F1
:101BD0002A4FFF185B4607CB07C7A2E77800C0195A
:101BE0008000264BC0180430321DB388D90A1C2946
:101BF00007D15B055915023149005118FFF790FED6
:101C0000D5E72B4B2B4AB12124480EF0BBFF05AE84
:101C10001D4B33807B000293D8198000174A9046F1
:101C2000020042440392901C1849FFF779FE70802D
:101C3000039A101D5946FFF773FEB0801E4B5A469B
:101C40004146521A524153431B0DB371F571019A2B
:101C50000792029B9C466744BF0047440ECE0EC7C6
:101C6000114B5A461380813B538001231C43A046ED
:101C700057E7C046240100D0EBE100203C0E0020D5
:101C800000ED00E0CD01001000A1FFFF6C0E002070
:101C900001BDFFFFE49D0110B89F0110409D0110A0
:101CA0000C9E0110349E01100148000001BD00008F
:101CB000A89E0110A89F0110AAAA0000F0B5CE4668
:101CC000474680B583B006000D00EFF3108872B66A
:101CD000564B1B68002BFBD0BFF35F8F544B9A68A9
:101CE00034001034A300D758524B9F4207D0AF4264
:101CF00000D198E00197504BFB1A2F2B09D942468F
:101D000039003000FFF7F4FD03B0C0BCB946B0465F
:101D1000F0BD3000FFF748FE814600213000FFF79C
:101D20005FFEBFF35F8FEFF30581002901D08C4286
:101D300011D10123019C9C430022A368AB4212D025
:101D40000622A256002A0DDB53009B189B0022009E
:101D5000394CE418F1E73621384B394AFF3139481C
:101D60000EF010FF2200AB4256D106256557002D1C
:101D700038DB6B005B199A002F4B9B189A68A260A6
:101D8000DA79E27106229A56A2719B795BB2002B36
:101D90000FDA2D48A0806B005B199B00264AD318F0
:101DA0002A4A11789971157049463000FFF718FEDC
:101DB000A5E7201D6B005B199B001F4A9B181A1D8D
:101DC0009B88D90A1C2907D15B055B150233590092
:101DD0005118FFF7A5FDDDE71D4B1E4AB12119483B
:101DE0000EF0D0FE002912D1002A0ED0FF239371ED
:101DF000194B9380154A1378A371184B0E49641A36
:101E0000644163431B0D1370CEE70A4FF2E7201DB8
:101E10001349FFF7A9FDC7E76A21124B084AFF31B2
:101E200008480EF0AFFE034F69E7C046240100D01A
:101E300000ED00E0CD0100103C0E0020C09E01101E
:101E4000889F0110409D011001BD0000EBE10020C2
:101E5000A89E0110A89F011001BDFFFFAAAA0000C3
:101E6000760E0020F49E011010B5032304009C435D
:101E7000064A9446644422681840C000FC338340FC
:101E80009A43130081400B43236010BD00E400E03F
:101E900070B5012101432E4BCB1A2F2B28D8EFF31D
:101EA0000583002B2BD0EFF3108C72B6294A1268F1
:101EB000002AFBD0BFF35F8F274A0400244D641B28
:101EC00064416243120D54B2244A92689B00D25876
:101ED0008A421BD00022032A32D853009B189B0051
:101EE0001B49CB189B795BB2A3421FD00132F2E7AA
:101EF000C7211B4B1B4A49001B480EF043FE922191
:101F00001A4B184AFF3118480EF03CFE134A9268EB
:101F10001749D150174B1A7882711C70BFF35F8F2D
:101F20000C4B00221A608CF3108870BD0D0053001A
:101F3000991889006918FF268E710F4A8A80E9E78F
:101F4000D1210E4B074A490007480EF01BFEC04640
:101F50003C0E0020240100D0AAAA000000ED00E001
:101F6000FC9E0110549F0110409D0110249F011000
:101F7000CD010010EBE1002001BDFFFF309F0110FB
:101F80000022044B02E0044902C30132072AFAD9B5
:101F90007047C04600E400E08080808010B5FFF705
:101FA000BBFC01000148FFF74FFA10BDF7E100202C
:101FB00000B583B00100064B0093052300220548BD
:101FC000FFF719FA002801DB1F23181A03B000BD20
:101FD000389F0110F7E1002070B504000E001500D5
:101FE000FFF762FA0100200000F006F8A680E58005
:101FF000BFF35F8F70BD0000024B9C4661448900B7
:10200000016070474000003410B50400FFF74CFA3F
:1020100001002000FFF7F0FFFF232371BFF35F8F64
:1020200010BD10B50400FFF73FFA01002000FFF7D4
:10203000E3FFFF23237100236371BFF35F8F10BDA4
:10204000034B9C46614489000160BFF35F8F70477A
:102050004000003410B504000120FFF733FA0100FE
:102060002000FFF7EDFF10BD70B505000C00080063
:1020700000F02AFF0949200000F06AFEFFF714FA79
:10208000074B9C466044800068602C75D0231B067B
:102090001B786B75A400034BE55070BDAD23001099
:1020A0004000003464CF00200A4B1A68EFF310811F
:1020B00072B61368002BFCD0BFF35F8F054B1B6813
:1020C000BFF35F8F00221A6081F3108840BF0020A9
:1020D0000021704758E1002010B5002922D0036884
:1020E0001B7B99421ED8174B9C46614409018368AB
:1020F0009C4661440C684968002A19D003681B7B20
:102100009A4215D883680F488446624412019A188F
:1021100010685368020001208B4201D80ED00020C5
:10212000C0B210BD084B094A3C2109480EF02AFDF7
:10213000054B064A3C2106480EF024FDA242EFD88A
:10214000EDE7C046FFFFFF0F8CA101100CA40110AA
:1021500038A1011010B500291ED0037B99421BD86D
:102160004B005B18033B0468A4466344002919D064
:10217000002A1DD0914221D0002A25D0047BA24202
:1021800022D804685000801803382018817019780C
:1021900000291FD11A7010BD104B114A6821114837
:1021A0000EF0F0FC104B114A6F310E480EF0EAFCB5
:1021B0000F4B0E4A70210B480EF0E4FC0D4B0B4AFE
:1021C000712108480EF0DEFC044B054A68210548E1
:1021D0000EF0D8FC41701A70DDE7C046B0A10110C6
:1021E00078A40110CCA1011034A2011054A4011054
:1021F00040A201104CA2011070B506000D001400A1
:10220000002914D0002A14D08068736898470028E9
:1022100006D0220029003000FFF79CFF280007E0CD
:102220002A0021003000FFF795FF200000E0100099
:1022300070BD0800FCE70000F0B583B00500009217
:1022400001930AAB1C780BAB1F78002C26D00368D7
:102250005A7B944207D10123002B19D1002C3BD18A
:10226000200003B0F0BD002C0CD01A7B944209D89A
:102270001A6863001B19033BD3189B78002BEBD023
:102280000123E9E73E4B3F4A68213F480EF07AFCC4
:102290003E4B3F4A67213F480EF074FC03689C7B2D
:1022A000002CDBD012D01A7B94420FD86200121996
:1022B000033A19688C46624451789973002900D119
:1022C000D9730023937053701370C7E72C4B2D4ABA
:1022D00068212D480EF056FC002C3AD02B681B7B51
:1022E0009C4236D82C4BE3181B01AA6894466344E1
:1022F000009A1A60019A5A60089A9A60099ADA60FC
:102300002E68002C2BD030D0337B9C422DD863001C
:102310001B19033B32689446634400229A705A703A
:102320001A70717B22003000FFF766FF70738442E1
:1023300000D095E7287D009A019B00F051FD061E14
:1023400001D0002F17D00C9B002B00D188E71E7006
:1023500086E7124B124A3C210E480EF013FC114B3B
:10236000114AA52108480EF00DFC054B054A6821CD
:1023700005480EF007FC2868210000F069FFE2E73D
:10238000B0A1011078A40110CCA1011064A2011029
:1023900084A4011038A10110FFFFFF0F8CA10110D0
:1023A0000CA4011034A1011068A40110F0B5DE46A0
:1023B00057464E464546E0B58BB00990002308933A
:1023C0008200B54BD658370052E0B44BB44A3F2197
:1023D000B4480EF0D7FBB44BB44A3C21B4480EF0DD
:1023E000D1FB002901D1002869D10021404600F02D
:1023F00025FFA04219D12A686B6806920793AB6843
:102400009846EB689A464346002B14D0002C18D00F
:102410003B681B7B9C4214D8631EFA68D35C08930C
:102420001B0218433861002015E0A24BA24A8E21FE
:102430009F480EF0A7FBA14B9F4A92219C480EF0AB
:10244000A1FB994B9E4A412199480EF09BFB00232A
:102450009A46984600207B68BFF35F8F00221A607F
:1024600086F310884346002B32D1002800D10CE1BE
:1024700000F000FC02000B1EA7DB002000210690EC
:1024800007917868EFF3108672B601680029FCD0D6
:10249000BFF35F8F396888464C7B002CD7D09AD029
:1024A000097B8C4297D8874965182D01B9688C46FD
:1024B000654428686968801A9941002991DD2A6875
:1024C0006B68099800F08CFC00239A469846C2E796
:1024D000089B1B022343994651461800C04705003C
:1024E0000E007A68EFF3108B72B6136859424B41B5
:1024F000D9B2002BF9D1BFF35F8F002E1EDB002E67
:1025000046DD3B69002B47D04B456DD100F0B2FB57
:1025100002000B1E6EDB52197341002B70DB002B87
:1025200072DB002104910131039102945146019123
:10253000414600913800FFF77FFE4CE03B69002BDD
:10254000DDD04B4514D1069A079B521BB341002B9B
:1025500014DB002B16DB002104910131039102945E
:1025600051460191414600913800FFF765FE32E087
:10257000554B514AA1214E480EF004FB0122524214
:10258000524BE6E7454B464A3F2146480EF0FAFAE1
:10259000002E01D1002DB4D13B68002C50D05A7BC5
:1025A000944237D1012100294AD1DA7B002A4DD14A
:1025B0009A7B002A03D1DA7B002A5AD19C73DC7300
:1025C000002C5CD03B681B7B9C4258D8FA68013CCD
:1025D000135D0133135500233B617A68BFF35F8FAE
:1025E00013608BF3108843E7374B334AA4213048FC
:1025F0000EF0C8FA294B2A4A3F212A480EF0C2FAA7
:1026000001225242314B8AE7244B254A3F2125487B
:102610000EF0B8FA002C0DD01A7B94420AD8620052
:102620001219033A1868844662449278002ABAD094
:102630000121B8E7264B274A682127480EF0A2FA65
:10264000264B274AF62124480EF09CFA002A0AD08D
:10265000197B8A4207D851008A18033A19688C46B8
:1026600062445470A4E71A4B1A4A68211A480EF0C3
:1026700089FA1C4B1A4AFB2117480EF083FA0A4BC1
:102680000F4A41210A480EF07DFA0BB0F0BCBB4660
:10269000B246A946A046F0BD64CF00205493011075
:1026A000D8A30110709301108CA101100CA401108B
:1026B00038A101108CA20110F0A30110A4A20110F6
:1026C00030A40110FFFFFF0FB0A20110FFFFFF7F3A
:1026D000B0A1011078A40110CCA10110ECA201104E
:1026E00044A4011010A3011010B50C4B5B68002B23
:1026F00004D00A210A48FFF77FFC10BD074C2300D5
:10270000084A1021206800F0A9FC032000F0A6FA76
:1027100003212000FFF7A8FCEBE7C046840E002051
:1027200058E10020D920001010B5064B5B68002B43
:1027300001D0044810BD044B044A5E2104480EF049
:1027400021FAC046840E002024A3011018A4011011
:1027500038A10110F0B5DE4657464E464546E0B575
:102760008BB0804616001F00149B9A46159B994615
:1027700016AB1B789B461F2302AA94466344002293
:102780001A702BE0002809D042461268127B904252
:1027900004D8421E4146C9688A5C41E0404B414A28
:1027A000412141480EF0EEF907984CE0361BAF414D
:1027B000002F07DB002F11DA3C4B3D4A3F213D48FB
:1027C0000EF0E0F9012676423B4FF3E7374B384AEB
:1027D0003F2138480EF0D6F9002F4FDB43465A68A8
:1027E000EFF3108472B6136859424B41D9B2079186
:1027F000002BF8D1BFF35F8F1F3302AA94466344C6
:1028000004930023039302934B4601935346009392
:1028100032003B004046FFF70FFD031EB2D102001D
:1028200041464968BFF35F8F00250D6084F310882F
:10283000002B29D01F2302A98C4663441B78002B50
:10284000B2D112021043002B20D05B46002B1DD0CA
:102850004946D04704000D0003000B431DD000295A
:10286000A4DB00F007FA06000F1EAFDB36196F413C
:10287000002FB1DA012676420F4FADE70B4B0C4A21
:102880003F210C480EF07EF9012040420BB0F0BC15
:10289000BB46B246A946A046F0BD0798F6E7C0463B
:1028A0008CA1011030A4011038A101105493011023
:1028B000D8A3011070930110FFFFFF7FF8B504004B
:1028C000002900D162E04268EFF3108572B6136808
:1028D00058424341D8B2002BF9D1BFF35F8FCBB23E
:1028E0002268567BB3421BD10120002848D02069C2
:1028F00088422BD0090AC9B2002B2ED02068007B59
:1029000083422AD8581EE668305C88422BD00020CB
:102910006368BFF35F8F00221A6085F31088F8BDEB
:10292000002B0DD0167BB3420AD85E00F618033E8A
:102930001768BC466644B678002ED6D00120D4E78E
:10294000134B144A682114480EF01CF92C21134B28
:10295000134AFF3113480EF015F9134B134A412166
:1029600010480EF00FF91900100000F071FC00285B
:10297000CED199210E4B0A4A49000A480EF002F9BD
:1029800023698B42C4D100232361C1E70020C6E73D
:10299000B0A1011078A40110CCA1011048A301102E
:1029A000C0A3011038A101108CA1011030A40110A6
:1029B0006CA30110407D7047F0B587B006000F0092
:1029C000EFF30583002B1FD106246442E517A419F9
:1029D0007D418D4202D803D1844201D900240025D3
:1029E000002D14DB0494059500F044F902000B1E41
:1029F00013DBA41A9D41002D17DC14D030003900E0
:102A000000F044F907B0F0BD23480EF055F9234B10
:102A1000234A3F2123480EF0B5F8204B204A3F219E
:102A200020480EF0AFF8002CE8D0FFF77DFE002321
:102A3000029301931C4B0093049A059BFFF78AFEB7
:102A4000002818DADAE7002300E00023002BD5D1B4
:102A5000164B1A68EFF3108172B61368002BFCD086
:102A6000BFF35F8F114B1B68BFF35F8F00221A60AB
:102A700081F3108820BF0499059A0D4B5B6A9A4236
:102A8000E3D80B48806A884203D29A42DBD0012304
:102A9000DCE70123DAE7C04670A30110549301106C
:102AA000D8A3011070930110A920001058E1002054
:102AB0000040054070B504000D0000F0DBF8020096
:102AC0000B1E0ADB200029008018594100290ADB6F
:102AD00000290CDBFFF770FF70BD084B084A3F214F
:102AE00008480EF04FF8012040420749F0E7034B39
:102AF000034A3F2103480EF045F8C04654930110A5
:102B0000D8A3011070930110FFFFFF7F10B5FA22C8
:102B10009200002300210FF059FDFFF7CBFF10BDFD
:102B200070B584B005000C00EFF30583002B1ED1B7
:102B3000FFF7FAFD002302930193224B00932A0032
:102B40002300FFF707FE061E23DD20BFFFF7ECFD85
:102B50003100FFF7B3FE1C4B5B6A9C422DD81A4A2A
:102B6000926AAA422CD29C4225D0012026E0164B24
:102B70005B6A994209D8144A926A824207D2994202
:102B800001D001201AE0002018E0002016E001200A
:102B900014E00D4B5B6A9C4209D80B4A926AAA4228
:102BA00007D29C4201D0012008E0002006E000206E
:102BB00004E0012002E0002000E0002004B070BD2D
:102BC0000120FBE7A92000100040054070B5EFF39D
:102BD00005801038EFF3108C72B61A4B1B68002B6F
:102BE000FBD0BFF35F8F01221300834016494B6374
:102BF00016490B60164909780C00C440224214D0D3
:102C0000114A546A8200134D5259944206D38200ED
:102C1000114C125999430E4B197007E00A4A031DD3
:102C20009B0099589950002200E00022BFF35F8F6B
:102C3000044B002119608CF31088002A00D09047C3
:102C400070BDC046280100D0004005403C700540E2
:102C5000F6E100207CE10020C41F002010B5010037
:102C6000024A0348FEF7AEFB10BDC046A8A40110FF
:102C7000E3E10020044B5B6A034A906A1900536A3F
:102C80009942F9D17047C04600400540084B5B6A45
:102C900001E0074B5B6A8B42FBD301E0044B5B6AAC
:102CA0008B4203D1024B9B6A8342F7D37047C046E5
:102CB0000040054070B504000D00FFF7DBFF020087
:102CC0000B0020002900801859418B4202D804D102
:102CD000824202D901204042C117002902DBFFF7DE
:102CE000D5FF70BD024B034A3F2103480DF04AFF58
:102CF000549301106CA501107093011010B50028B9
:102D000007DB064B9A6A054B9B6A9B1A8342FAD3F0
:102D100010BD0021FFF7CEFFFAE7C0460040054096
:102D200010B50A4B984207D843011B1A9B0018188C
:102D3000C000FFF7E3FF10BDFA229200002300213C
:102D40000FF044FCFFF7B6FFF5E7C0469BC4200038
:102D500070B504000D00EFF3108672B61B4B1B68B4
:102D6000002BFBD0BFF35F8F002D1CD02000FEF79F
:102D700047FE174B83420BD019002000FEF75AFE86
:102D800001212000FEF72CFE0123A340114A13600D
:102D9000A400114BE550BFF35F8F0C4B00221A606B
:102DA00086F3108870BDA2000B4B0021D150012288
:102DB000A2400A490B7893430B7005492000FEF7A7
:102DC0007DFF00212000FEF70BFEE4E7280100D084
:102DD000CD2B001038600540C41F0020F6E1002014
:102DE000F0B5DE4600B584B00400150001921E0067
:102DF0000293FFF73FFF03958E4202D84ED18542E2
:102E00004CD9EFF3108B72B6274B1B68002BFBD00D
:102E1000BFF35F8F254A17780125A540EBB23B43EE
:102E20001370234B5D63221D92000199D150A200C3
:102E30002049029850501B6A2B4212D11C4B1B6C2C
:102E40002B4208D00020BFF35F8F174B00221A607F
:102E50008BF3108823E0184B184AC52118480DF051
:102E600091FEFFF707FF8E4214D802D1039B8342E5
:102E700010D80E4B1B78BB420ED00D4B1D625D630C
:102E80001F2004400123A3400E4A1360074B1F700C
:102E90001E38D8E70020D6E70120D4E7012004B08F
:102EA00080BCBB46F0BDC046280100D0F6E1002042
:102EB000004005407CE10020CCA4011050A5011089
:102EC000F0A4011080E200E0EFF3108C72B60B4B1F
:102ED0001B68002BFBD0BFF35F8F01238340084AA0
:102EE000136208490A789A430A70BFF35F8F034B55
:102EF00000221A608CF310887047C046280100D069
:102F000000400540F6E1002010B500291ED0037BEB
:102F100099421BD84B005B18033B0468A4466344EA
:102F2000002919D0002A1DD0914221D0002A25D095
:102F3000047BA24222D8046850008018033820186D
:102F40008170197800291FD11A7010BD104B114AD9
:102F5000682111480DF016FE104B114A6F310E48D2
:102F60000DF010FE0F4B0E4A70210B480DF00AFEBB
:102F70000D4B0B4A712108480DF004FE044B054A25
:102F8000682105480DF0FEFD41701A70DDE7C0466E
:102F9000B0A101108CA60110CCA1011034A2011027
:102FA00078A6011040A201104CA2011070B50600D5
:102FB0000D001400002914D0002A14D08068736812
:102FC0009847002806D0220029003000FFF79CFF18
:102FD000280007E02A0021003000FFF795FF2000BD
:102FE00000E0100070BD0800FCE7000010B50023F1
:102FF000437301338373037BC3730123027B9A42C0
:1030000014D9002B0CD0027B934209D85A00D21855
:10301000033A01688C4662440133DBB25370EDE73A
:103020000B4B0C4A68210C480DF0ACFD002A09D06E
:10303000924207D8016853009A18033A8A1800236D
:10304000537010BD024B034A682103480DF09AFDEE
:10305000B0A101108CA60110CCA1011010B5017314
:1030600042608360FFF7C2FF10BD000070B504002E
:10307000081E00D170BD002934D0237B994231D87D
:103080004B005B18033B2268944663445A78002A3D
:10309000F0D02DD0237B9A422AD853009B18033BB3
:1030A00021688C4663445D7800215970002825D042
:1030B000237B984222D843001B18033B21688C468F
:1030C00063440021597001002000FFF76FFF0600E4
:1030D00029002000FFF7CAFF020031002000FFF79F
:1030E00065FFC7E7084B094A682109480DF04AFD0A
:1030F000054B064A682106480DF044FD024B034A81
:10310000682103480DF03EFDB0A101108CA601100E
:10311000CCA1011070B505000C00160000292FD0BD
:1031200034D0037B994231D84B005B18033B0268D3
:10313000944663445A78002A2ED19A78002A31D1D5
:103140001978FFF793FF0300002E0AD0EA7B002ACC
:103150002ED1AA7B002A03D1EA7B002A3BD1AC7393
:10316000EC73002B3DD1002C4FD02B7B9C424CD8D4
:103170002B6861000C19033C1C190023637070BD9F
:10318000254B264A382126480DF0FCFC254B264AC3
:10319000682126480DF0F6FC254B204A3A212048AC
:1031A0000DF0F0FC234B1D4A3B211D480DF0EAFCBD
:1031B000002A0AD0297B8A4207D851008A18033A8C
:1031C00029688C4662445470C3E7164B164A68213E
:1031D00016480DF0D7FC184B104A422110480DF04C
:1031E000D1FC002B0BD02A7B934208D843001B183C
:1031F000033B2A689446634400229A70B3E7094B64
:10320000094A682109480DF0BDFC064B064A6821B1
:1032100006480DF0B7FCC04684A5011064A6011055
:103220008CA50110B0A101108CA60110CCA1011039
:10323000E0A5011008A6011010A3011070B504004C
:103240000A00457B2900FFF765FF6073280070BD09
:1032500070B50400002967D0437B8B420ED0002953
:1032600011D0037B99420ED84B005B18033B0268D8
:10327000D0188378002B0CD1002056E00121FFF7F5
:10328000DDFF012051E0294B294A682129480DF032
:1032900079FC002B20D0227B93421DD85A00D318F2
:1032A000033B2268D2182568EB5C8B421AD0002BB6
:1032B0001BD0227B934218D85A00D318033B2268B4
:1032C000D21853788B4216D0002BF0D11A4B1B4AE0
:1032D0006B211B480DF056FC144B154A682115480C
:1032E0000DF050FC4378137007E0104B104A682132
:1032F00010480DF047FC43785370002383704370EF
:1033000001222000FFF706FF0200617B814205D009
:103310002000FFF74BFE6073012006E0094B074ACF
:10332000712107480DF02EFC002070BDB0A10110E6
:103330008CA60110CCA10110309F01104CA60110E9
:103340008CA501102CA60110F0B5C64600B50400EE
:103350000E0017001D0037480EF0A2FD8046364BC8
:10336000FA18364B9A4239D8010038000EF098FD11
:103370000200103A98235B009A4235D86B1E062B48
:1033800038D8069B013B062B34D83F09474537D335
:103390002D04069B1A0315432368002B36DB284BAC
:1033A0009C4244D080225201264B1A60264B1A6060
:1033B000264B9B6811009943FAD12660A060231D1B
:1033C000C02292011A43212313602368002BFCDAE8
:1033D000E5600823136080BCB846F0BD1C4B1D4A55
:1033E00011211D480DF0CEFB1C4B1A4A19211A4819
:1033F0000DF0C8FB1A4B174A1C2117480DF0C2FBF1
:10340000184B144A232114480DF0BCFB22683F23BB
:103410001340B342C3D1A3681B051B0D8342BED129
:10342000E368EE22D2021340AB42B8D1D3E7802248
:103430009201B9E7001BB70080E84BD380F8A932AE
:1034400000C0024000E0004000F0004000C000402A
:1034500098A60110D8A70110F8A6011054A70110D2
:1034600070A70110BCA7011080239B000343014AF1
:10347000D362704700800540024B1A68024B5A60C5
:103480007047C046483500200080054010B5020056
:10349000164B8020C0051860154B1648186000298F
:1034A0000AD0154BE021C9041960002A09D1124B3A
:1034B000802212061A6010BD0C4BE021C90419606D
:1034C000F3E753019B1A9800801800010B4B18601A
:1034D00080235B04984202D3084B094A1A60FFF725
:1034E000CBFF054B8022D2051A60E4E700B005400F
:1034F00008200140FCFF010000A0054048350020E5
:10350000FFFFFF0010B5030010000C4A8024E40503
:103510001460002B0DD001221343094A094CD461D9
:10352000094C5C401462516293620021FFF7AEFFC8
:1035300010BD034B0022DA61F7E7C04600B005403A
:1035400000800540D3C007B02D3FF84F064BAA229C
:1035500012011A602F22DA60044B054A1A60024BEE
:103560005B68002BFBDA70470040024000600240BD
:1035700000B0FA0010B502F011F800F063FF01F09E
:103580003BF901F0DFF905F0BBFD02F091F800F026
:103590006BFD05F0EDFC10BD0302000A184380B27C
:1035A000704703060202FF2109040A401343020A7E
:1035B000FF2109020A401343000E1843704770B5FB
:1035C00004E0013A002A1AD0002D14D00578013009
:1035D0000B7801319D42F4D020242C43E4B2260024
:1035E000613EF6B2192E08D820263343DBB29C4246
:1035F000E7D0012004E0002002E0012000E00020EC
:1036000070BD000000280AD0C07A002809D1431CF0
:103610009B00054A9B58002B04D0012002E00020AB
:1036200000E000207047C046B82C002010B5FDF720
:103630004BFE80B2002301E00133DBB2032B0FD835
:103640001A01D218120107498A18927A022AF3D174
:103650001A01D21812018A1812898242ECD1E6E7C7
:1036600010BDC046C02C0020F0B5D6464F46464699
:10367000C0B506008846002401E00134E4B2032C02
:1036800023D8250063001B199B00314A9F58002F47
:10369000F3D063001B199B00D3181B7AB342ECD103
:1036A00030018019000110302A4BC0189246630087
:1036B00099461B199B0053445A684146B8474D44EC
:1036C000AD0000235246AB50D7E7002301E00133A1
:1036D000DBB2032B1BD8B342F9D01A01D218120166
:1036E0001C498A18927A022AF1D11A01D2181201C1
:1036F0008A18D07B3201921912018A18D27B90422B
:10370000E5D133019B191B01CB180422DA73330175
:103710009B191B010F4AD318DB7B032B04D9E0BC98
:10372000BA46B146A846F0BD0B4C9B00185905F0AF
:10373000E5FF084A300183191B01D318DB7B9B008E
:10374000002119518019000110180423C373E6E702
:10375000882C0020C02C0020782C002070B504009C
:10376000144823011A1912018218032595721B1996
:103770001B011950104B994204D923011B191B013D
:103780000D4919502501291909010A4E89190431D9
:103790002000FFF769FF2D192D01AB59002B04D133
:1037A000044A53199B7A032B00D070BD541900238F
:1037B000A372FAE7C02C0020803A0900F0B5D64683
:1037C0004F464646C0B584B08046030143441B01C2
:1037D000534AD318DB7A012B34D89B00514A9B58AB
:1037E000002B32D004014444240110344C4BE41823
:1037F000200013F087F8A022123081B29200362008
:1038000001F034FB8146002800D185E001AD0C2297
:10381000002128000EF080FF43461B0143441B019A
:103820003F4AD3181889FFF7B7FE28800123AB70F1
:10383000FF33AB800C222900484601F03FFD661E95
:103840000C2737E038480DF037FA0021FFF70CFF5E
:103850004346180140440701314BDF190023BB7276
:103860000024200004B0E0BCBA46B146A846F0BD32
:103870000134E4B2013633782E2B01D0002BF7D17E
:10388000731B9BB29A463B19284A934216DC2200CE
:103890003900484601F0CDFD7B1C9BB25246290001
:1038A000484601F057FD3C19A5B26F1CBFB23378F2
:1038B000002B09D0013635000024DCE7484601F032
:1038C00097FA06246442CCE700223900484601F00A
:1038D000B0FD0235ABB28022520069460A804A80B0
:1038E000FC3A484601F036FD0D4943461B0142466D
:1038F0009A1812018A18D07BD37A9B00094AD218F1
:1039000080000B4940583523494605F06FFE0400FE
:10391000484601F06DFAA4E701246442A1E7C046DD
:10392000C02C0020B82C0020E4A70110FEFF0000EE
:10393000782C002070B50400000100190001414BF3
:10394000C018032C20D823011B191B013D4AD31892
:103950009B7A022B34D01AD8002B14D0012B00D024
:103960006CE0FFF763FE3749220113191B01CB18E6
:103970001881022098720020D87201251D73587397
:103980002000FFF71BFF70BD2F480DF095F9032BAA
:1039900054D123011B191B012A4A9B58002B07D025
:1039A000013B22011219120126495350002BEAD182
:1039B000200104192401234804190023A372E2E71B
:1039C00023011B191B011F4AD218137B013BDBB2D9
:1039D0001373002BD7D123011B191B01194AD218CD
:1039E000537B0133DBB25373042B09D0220112192C
:1039F000120114498A1813732000FFF7DFFEC2E793
:103A0000FFF700FE00280DD00E49220113191B01FB
:103A1000CB18D87A0130D872012018731A0000230D
:103A20005373E9E700212000FFF71EFE200104196F
:103A30002401044B1C190023A372A4E703480DF0D2
:103A40003BF9C046C02C0020FCA7011018A80110AB
:103A500010B5002404E02000FFF76CFF0134E4B24D
:103A6000032CF8D910BD0000F0B583B00600019218
:103A70000F00FF2900D9FF27002401E00134E4B240
:103A8000032C28D823011B191B01154AD3189B7A34
:103A9000032BF3D1210109190901103189183A00CA
:103AA0003000FFF78CFD0028E8D123011B191A0113
:103AB0000B4B9B18DB191B7C002BDFD1019A002AD2
:103AC00007D023011D192D01054B5D196B6801936A
:103AD0001360002001E01020404203B0F0BDC0465A
:103AE000C02C002010B52E2005F038FE041E14D086
:103AF000FDF7EAFB82B28023DB009A42F8D30A4941
:103B0000200005F015FC03000833F1D0002806D191
:103B100000220649200005F0E5FD200010BD200030
:103B200005F0ECFD0024F8E710CB0110493E001031
:103B300010B50024032C07D8A300174A9B58002B6C
:103B400002D00134E4B2F5E7032C05D9134B1C78FD
:103B50000134E4B2002312E0FFF7C4FFA3000E4AD1
:103B600098500028F2D00D4B1C7012E0A2000A49B8
:103B70005258002A09D10133DBB20134E4B2032BDD
:103B800006D8032CF2D90024F0E7044B1C7000E0A7
:103B90000424200010BDC046782C0020E6E100205F
:103BA000F0B5CE4600B582B08146009201930E007A
:103BB000FF2900D9FF26002410E002005B005818FE
:103BC0008000009D8550581880001018019D4560A8
:103BD0000472052040428EE00134E4B2032C28D860
:103BE00023011B191B014F4AD3189B7A022BF3D1D7
:103BF0002101091909011031891832004846FFF7DF
:103C0000DEFC0028E8D123011B191B01454FFF18DA
:103C1000BF193B7C002BDFD1032BDDD819005A00E4
:103C2000D218920040481258002AC6D00133DBB2A5
:103C3000F2E7002404210020002701E00137FFB251
:103C4000032F13D83C01E4192401364AA418A27AA0
:103C5000002A0BD0032AF1D1344A1278A37BD31A5D
:103C6000DBB29842EAD239001800E7E7042F0DD002
:103C70000023032B1FD819005A00D21892002A489B
:103C80001258002A12D00133DBB2F2E7032940D8E0
:103C90000B015B181B01234AD3189B7A032B3BD1E2
:103CA0000C0164182401A4180F00E1E75B00591807
:103CB0008D00451900E00025002D30D02F72012322
:103CC000A3721A4B1B78A373009B2B60019B6B6044
:103CD00020001030320049460EF024FDA1190023C7
:103CE0000B74FFF725FFE073032808D90023A372A4
:103CF0002B600120404202B080BCB946F0BD0B4AA7
:103D00001378013313703800FFF714FE052040428A
:103D1000F1E701204042EEE701204042EBE70120BD
:103D20004042E8E7C02C0020882C0020E7E100207A
:103D3000F8B506000F0014002100380001F058FB10
:103D4000051E3CDB254B9C423BD00134A4B2C02372
:103D50000340C02B0CD1214836E0203217E08242CC
:103D600033D11E4B9C4232D00134A4B20136013D06
:103D7000002D16DD2100380001F03AFB031E22DB86
:103D800032781749885C032101400129E5D0FF20E2
:103D90001840134B195C03230B40012BDFD120305B
:103DA000DDE701362100380001F022FB002810DB9E
:103DB000C2D10A4B9C420ED00134A0B204E00748A5
:103DC00002E0200000E00548F8BD0448FCE72000C0
:103DD000FAE70248F8E72000F6E7C046FFFF0000D8
:103DE000495D051070B506000C00651CADB22100E0
:103DF000300001F0FDFA00281BDB002D1BD0C02392
:103E00000340C02B0ED02B183289934215DA80B2B2
:103E1000401984B22100300001F0EAFA00280EDBDC
:103E2000E3D12500074B9D4201D00135ADB22800FA
:103E300070BD044DFBE7034DF9E7024DF7E7014D77
:103E4000F5E7C046FFFF0000F0B5C64600B58CB0F0
:103E500017001C0013890F2B06D8380000F0C8FF8C
:103E60000CB080BCB846F0BD00230C2209A9380074
:103E700001F0D8F90C28F0D109AB1888FFF78CFBBA
:103E800000266CE088235B00019A5343714DED18C6
:103E900003236B73023B2B733000FFF74BFDDCE712
:103EA00006AB1889FFF778FB201880235B02984245
:103EB000D3DA06AB1889FFF76FFB011989B20398B3
:103EC000013883B20393039B002B00D1B1E03B89FF
:103ED000994200D3ADE03800FFF784FF04005E4B49
:103EE0009842BAD003000A2206A9380001F09AF9D4
:103EF0000A28B2D1594B9C42AFD80A34A4B206ABBF
:103F00005A8880235B009A42CAD106AB1A88802364
:103F10005B009A42C4D106AB1A898023DB009A4227
:103F2000BED12300042204A9380001F07BF9042843
:103F300000D092E788235B00019A5343454DED186A
:103F4000049B6B60380000F053FF0798FFF729FBD4
:103F500001003000FFF702FC82E70136F6B2032EC3
:103F600000D97AE7019633019B191B01394D5D1980
:103F7000AB7A022BF1D12B898342EED104AB188BA3
:103F8000FFF70AFB029004AB588BFFF705FB039089
:103F900004AB9B7D5BB2002B00DB5EE7029B012B39
:103FA00000D05AE72168019A1301944663441B012B
:103FB000284AD318DB7A9B00294A9B58994200D0A3
:103FC0004BE788204000634658431030214BC0180F
:103FD0000C223900FFF7ACFE04001F4B984200D1C1
:103FE0003BE70300042205A9380001F01BF904286F
:103FF00000D032E705AB5A8880235B009A4200D09C
:104000002BE705AB1A8880235B009A4200D024E797
:10401000144B9C4200D920E7211D89B209ABDB7803
:104020001B0700D14FE72800FFF7ECFA002800D06B
:1040300028E7380000F0DCFE00213000FFF714FB19
:1040400088235B00019A5343024DED180023AB72A5
:1040500006E7C046C02C0020FFFF0000F5FF00006F
:10406000B82C0020FBFF000070470000012800D999
:104070007047002904D080000A68044BC250F7E75B
:104080008000034B1A68014BC250F1E7B82C0020A6
:1040900010CB011010B5FFF7DBFC10BDF0B583B0FD
:1040A00004000D0001921F00002928D0002829D00B
:1040B0000378002B29D012F025FC461EA35D2E2B81
:1040C00000D00600FF2E23D82900200008F028FA8F
:1040D000002802D0002003B0F0BD2A0031002000EB
:1040E000FFF7C2FC0028F6D00C4B1B68002B12D047
:1040F0003B00019A31002000FFF752FDEBE7102052
:104100004042E8E710204042E5E710204042E2E765
:1041100010204042DFE706204042DCE7B82C0020B8
:1041200010B582B000240094FFF7B8FF02B010BDB4
:1041300030B583B06B460022DA8001231D000540B4
:10414000184206D0002904DD02786B46DA71013985
:104150000130032213000340104209D0012903DD7E
:1041600003880239023003E0002301E0083920000F
:1041700007290CDD0268D218934200D901320400ED
:10418000083443689B189A42F0D90133EEE71A0CC1
:104190001B041B0CD31803E002889B180239023061
:1041A0000129F9DC002902DD01786A4691716A462D
:1041B00006321288D318180C1B041B0CC318180CD9
:1041C0001B041B0CC018002D05D003061B0C020A93
:1041D000FF201040184380B203B030BDF0B583B06B
:1041E0000600019115001C00002700E03668002E33
:1041F00015D071897068FFF79BFF0019040C00044B
:10420000000C24187389DB07F0D57B425F41FFB2B5
:104210002206120C230AFF241C401443E6E7002F59
:1042200005D02206120C230AFF241C4014436B46BF
:104230009888FFF7B1F924182800FFF7ADF9201886
:10424000030C0004000C1818030C0004000C1818D0
:10425000C04380B203B0F0BD70B51C6825042D0CBE
:10426000230C5B19049C246825042D0CED18230CE9
:104270005B191C0C1B041B0CE3181C0C1B041B0CF3
:10428000E318FFF7ABFF70BD10B582B0049C00943B
:10429000FFF7E2FF02B010BD10B5FFF749FFC043C2
:1042A00080B210BD70B505000026002400E02D6826
:1042B000002D15D069896868FFF73AFF0019040CD2
:1042C0000004000C24186B89DB07F0D573425E41B3
:1042D000F6B223061B0C240AFF2004401C43E6E729
:1042E000002E05D023061B0C240AFF2004401C438B
:1042F000E04380B270BD0000014B1B681818704786
:1043000078CF0020024B1B68C01A80B27047C046AD
:1043100078CF0020F8B50400FFF7F4FF05002788E8
:104320003800FFF7E9FF060064882000FFF7E4FF8C
:10433000FA231B019F420FD89C420FD8AC4202D0F7
:104340000388AB420CD1094B1B68B3420AD0738877
:10435000AB4209D1012000E00020F8BD0020FCE7BD
:104360000020FAE70120F8E70020F6E77CCF0020E4
:1043700070B504002C4B1B68834242D82B4B1D6840
:10438000854241D90379002B41D10088FA231B01D2
:1043900098423FD8FFF7B0FF844216D00379002B34
:1043A00013D1854211D0224B1B68834235D003883C
:1043B00023800088FA231B01984206D0FFF79CFF58
:1043C00005002000FFF79EFF68806088FFF794FFDC
:1043D0000500844214D00379002B11D1144B1B68C3
:1043E000A3421DD023882B802088FA231B019842EA
:1043F00006D0FFF781FF04002800FFF783FF6080ED
:1044000070BD0C480CF058FC0B480CF055FC0B48E8
:104410000CF052FC0A480CF04FFC054B1C60C6E740
:10442000034B1860DEE7C04678CF00207CCF002029
:104430004435002038A8011050A801106CA80110C4
:1044400088A8011070B50C4C033403239C430B4B1C
:104450001C60FA252D01258000236380237128002C
:10446000FFF74AFF064B1860012303710580458062
:10447000044B1C6070BDC04680CF002078CF002068
:104480007CCF00204435002070B5041E23D0830764
:1044900022D10500083D164B1B68AB421FD8030014
:1044A0000C33144A1268934219D80300083B1B7955
:1044B000002B17D02800FFF72DFF002815D0083C4F
:1044C000002323710C4B1B68AB4201D90A4B1D60C2
:1044D0002800FFF74DFF70BD08480CF0EDFB0848C1
:1044E0000CF0EAFB07480CF0E7FB07480CF0E4FB94
:1044F00078CF00207CCF002044350020B4A80110E4
:10450000D8A80110F4A801101CA90110F0B5C646E6
:1045100000B50500CC1CA4B203239C430B2C05D989
:10452000FA231B019C4202D900253FE00C248C4257
:1045300000D277E03C4B1B68AB423BD83B4B1B683F
:10454000AB4237D92F00083F3800FFF7DBFE0600EB
:104550003F883B1A9BB2083B9BB298469C422CD8A2
:1045600024D03800FFF7C8FE0379002B31D1FA239D
:104570001B019F4224D00788A419A4B20834A4B216
:104580002B4B1B6883421ED02000FFF7B5FE002393
:104590000371078046802B00083B1C800088FA23AB
:1045A0001B01984202D0FFF7A7FE4480280080BC80
:1045B000B846F0BD1F480CF07FFB1F480CF07CFB99
:1045C0001E480CF079FB2000FFF796FE184B186090
:1045D000DAE7230014334345E8D8A419A4B2083419
:1045E000A4B2FA231B019F4219D02000FFF784FEDA
:1045F0000F4B1B68834201D90D4B186000230371D8
:104600002B00083B1A88028046801C800088FA2311
:104610001B019842CAD0FFF76FFE4480C6E70748E7
:104620000CF04AFB0025C1E778CF00207CCF0020AA
:104630004435002050A9011068A9011088A9011073
:10464000F0B5CE4600B582B0002800D182E0C51C8E
:10465000ADB2032295430B2D05D9FA231B019D42D0
:1046600002D9002072E00C25854200D274E03B4B59
:104670001B6899461800FFF745FE070032E03848EE
:104680000CF01AFB01230371A14510D0019BE51822
:104690000835344B1B689D421DD8A3071ED120004E
:1046A000083053E04B461888FFF726FE81464B46FC
:1046B0001B79002B03D02B4A12684A45F2D1274AB6
:1046C00049461160274A12684A45DFD0002BDDD0E9
:1046D00025480CF0F1FA25480CF0EEFA24480CF0CD
:1046E000EBFA27883E000195FA231B015B1B9F42D2
:1046F0002BD23800FFF700FE04000379002BF0D125
:1047000003889E1B083E019B9E42EAD314339E42BF
:10471000B8D37E19B6B20836B6B2FA231B019E4250
:10472000ADD03000FFF7E8FD00230371238803803C
:1047300047802680012323710088FA231B019842B9
:10474000A2D0FFF7D9FD46809EE7002002B080BCD2
:10475000B946F0BD0020F9E70020F7E74435002016
:1047600088A901107CCF00209CA90110B8A90110D4
:10477000E8A9011010B50400FCF706FAE3681C680C
:10478000002C0AD022681A60A30703D1FCF7FEF9B7
:10479000200010BD02480CF08FFAFCF7F7F9F7E79C
:1047A00018AA011070B505000C008B0709D1FCF7A1
:1047B000EBF9EB681B682360EB681C60FCF7E6F91B
:1047C00070BD01480CF078FA3CAA0110C3680022C1
:1047D0001A608368033303329343002207E0C16801
:1047E00009681960C1680B6081885B180132C18853
:1047F0009142F4DC7047000010B5002406E0A200EE
:10480000044BD058FFF7E2FF0134A4B2082CF6D9CC
:1048100010BDC0468CAB011010B5082805D880002B
:10482000044BC058FFF7A6FF10BD03480EF04AF92D
:104830000020F9E78CAB01105CAA011010B5082824
:1048400007D8002904D08000044BC058FFF7AAFF06
:1048500010BD03480EF036F9FAE7C0468CAB0110E4
:104860007CAA01100B688268934206D0002902D00E
:104870008360012070470023FAE70020FAE70B6805
:10488000C268934206D0002902D0C360012070475D
:104890000023FAE70020FAE70C204042704770B589
:1048A00004000D0001F04CF92900200004F05AFF2B
:1048B0002900200000F056FE70BD000010B5002851
:1048C0000DD03923C25C343B1340052B06D1CB07F6
:1048D00004D54368002B01D0130703D410BD03484F
:1048E0000CF0EAF9011D06F025FBF7E7B0AB01106B
:1048F00030B583B005000C001000002908D0002A54
:1049000009D06B680A689A4208D1002003B030BD14
:104910000B480CF0D1F90A480CF0CEF90192036073
:1049200001A9FFF7BCFF23686B6001212800FFF796
:10493000C5FFEB69002B01D0280098470120E5E76F
:10494000D4AB011070470000F0B5C64600B582B088
:1049500005000C0017001E00002920D0002F20D0D9
:10496000002E20D0002C02D02368002B1DD101AADC
:1049700021002800FFF7BCFF0123984600223900E0
:104980002800FFF76FFF002231002800FFF777FFB4
:104990004346002B0CD002B080BCB846F0BD074C9B
:1049A000DCE7064FDCE7054EDCE700239846E5E749
:1049B00001AA21002800FFF79BFFECE710CB0110B4
:1049C000F0B5C64600B504000E0017009846002852
:1049D00032D0079B002B34D0002937D0002F37D09E
:1049E0004346002B36D000256560A560E560354B59
:1049F0006361258600223923E254200028300422F6
:104A000000210DF089FEE5612562069B63622E4B55
:104A10001A783C23E254089B236143463A00310054
:104A20002000FFF791FF2000079B9847002823D024
:104A3000002080BCB846F0BD24480EF043F82000AA
:104A4000F7E723480EF03EF80020F2E7214EC5E7D5
:104A5000204FC5E71F4B9846C5E7C33B0022E254F1
:104A60000EE01D480CF028F91C480CF025F9013126
:104A70003C22A154002B15D03C23E35CFF2BECD04F
:104A8000174B1D682B000022002BF3D09C42E8D06E
:104A90000132FF2AE8DC3C21585C615C8842E6D0A8
:104AA0001B68F1E73C33E35CFE2B07D00133064A79
:104AB000137025600A4B1C602000BAE7024B0022ED
:104AC0001A70F6E799480010EEE10020E4AB0110FF
:104AD00000AC011010CB011024AC011038AC011057
:104AE0004CCF0020014B18607047C04648CF0020D3
:104AF00010B5041E10D03923C35CDA070BD4012291
:104B0000134339228354C369002B00D098470321F3
:104B10002000FFF7D3FE10BD01480DF0D3FFFAE7E8
:104B200068AC011010B5041E0FD03923C35CDA073E
:104B30000AD501229343383283541B0709D4E36911
:104B4000002B01D02000984710BD03480DF0BAFF9C
:104B5000FAE706F041F9F2E784AC011010B5041E43
:104B600028D04368002B12D13923E35CDB0713D430
:104B7000114B1B68A34213D0104B1B68A34213D0E8
:104B8000002B17D01A68A24212D01300F8E70430A5
:104B90000021FFF784FEE7E72000FFF7C3FFE7E708
:104BA0000020FFF79FFFE7E72268044B1A6001E04F
:104BB00022681A6010BDC04648CF00204CCF0020AC
:104BC00010B5041E04D03923C35C5A0704D510BDA8
:104BD00009480DF077FFFAE7042213433922835482
:104BE00005F004FD03212000FFF768FE236A002B77
:104BF000EDD020009847EAE7A4AC011010B50028DA
:104C00000CD03923C35C5A0707D5042293433532AD
:104C10008354036A002B00D0984710BD01480DF063
:104C200051FFFAE7C8AC0110021E0BD0064B186802
:104C3000002808D03C23C35C0133DBB2934202D08E
:104C40000068F5E7002070474CCF002030B504AC79
:104C500025780024046041600281438103AB1B7806
:104C60000373457301238373C47330BD02E0C91A13
:104C700089B20068002802D043898B42F7D9002A04
:104C800000D011807047000010B5FBF77DFF034B8B
:104C900001221A70FBF77AFF10BDC046F0E1002038
:104CA00070B500281AD080235B02994221D20029D6
:104CB00021D08CB203891B199BB2A3421DD30C25B2
:104CC0004557002D0DDB002A19D04268511A41606A
:104CD000428914194481038100200BE009480BF03C
:104CE000EBFF4268511A020010328A42EFD90120CC
:104CF00000E0012070BD0020FCE70120FAE7012060
:104D0000F8E7C04648C4011010B5FBF73DFF084B5B
:104D100000221A70FBF73AFF064B186800E0C068E3
:104D2000002804D0436F002BF9D000F095FD10BD92
:104D3000F0E100208CE10020F0B583B007000E0008
:104D40001500412A01D0012A0FD10720FFF764FD89
:104D5000041E07D000230193009533003200390070
:104D6000FFF774FF200003B0F0BD01480BF0A4FF73
:104D7000ECAC011010B50022FFF792FF10BD00004F
:104D800010B5002814D080235B02994218D2002964
:104D900018D08AB2438993420DD34468A446614433
:104DA00041609B1A438103899A1A0281002010BD39
:104DB00005480BF081FF05480DF084FE0120F6E761
:104DC0000120F4E70020F2E748C4011000AD011013
:104DD00010B5002902DBFFF763FF10BD4942FFF762
:104DE000CFFFFAE710B50122FFF7F2FF10BD000078
:104DF00070B5051E01D000260CE019480BF05CFFD1
:104E000018480BF059FF29000820FFF717FD01365D
:104E1000F6B22500002D21D0FBF7B6FEAC7B002CAE
:104E2000EED0013CE4B2AC73FBF7B0FE002C15D120
:104E30002C682A7B0F231340022BE4D0012B05D0D2
:104E4000002B08D12800FFF71FFBE0E7290007200F
:104E5000FFF7F4FCDBE704480BF02EFF300070BDD9
:104E600048C4011020AD011038AD0110F0B5D64690
:104E70004F464646C0B582B005000F00904684B24A
:104E8000C1235B009A4241D011D8012A02D0412AA5
:104E900000D07DE0424639000020FFF74DFF8146FB
:104EA000484602B0E0BCBA46B146A846F0BDA023D1
:104EB0009B009A426CD1E31C03218B439BB2FA1CEA
:104EC00094B28C431B199BB21800103080B28A43F5
:104ED000934260D3824261D8FFF7B2FB814600283B
:104EE000DED029001031494403310324A1430023BB
:104EF0000193434600933B003A00FFF7A7FE4B4661
:104F00005B682342CCD027480BF0D6FE0025002357
:104F1000994626E0FFF7B8FE4B46002B02D04846E4
:104F2000FFF766FFA946BBE7B6B22100103169184A
:104F300003310324A143002301934346009333002C
:104F40003A002800FFF782FE6B6823421BD14B46D4
:104F5000002B1BD053461D60BF1BBFB20024002F87
:104F60009ED0AA460820FFF757FC051ED2D0E31CAE
:104F7000032293439AB20C4B9B1A9BB21E1CBB425A
:104F8000D2D93E1CD0E709480BF096FEA946E3E7CC
:104F900007480BF091FE0023994681E700239946CC
:104FA0007EE7C046B0AD0110EC0500004CAD01102D
:104FB000DCAD011070B5041E12D00089884220D9E2
:104FC0000D006389AB420ED2ED1AADB223890A1AE5
:104FD0009B1823812468002CF3D113480BF06CFE3E
:104FE00012480BF069FE227B120701D1AB4209D1B6
:104FF000658125812068002801D0FFF7F9FE002394
:10500000236070BD6368191B691889B22000FFF71F
:105010007DFA002804D08442EAD005480BF04CFE0B
:1050200004480BF049FEC04610AE0110F8AD011067
:1050300044AE011028AE01100300002002E0013050
:1050400080B21B68002BFAD17047000010B5041E17
:1050500009D0FBF799FDA37B0133A373FBF796FD02
:10506000A37B002B00D010BD01480BF025FEC046ED
:1050700060AE011010B5002801D0002908D10C48FD
:105080000DF020FD0FE003890C891B19038110002E
:105090000268002AF7D103894289934204D10A8920
:1050A0009B180381016010BD02480BF005FEC0464D
:1050B00074AE0110ACAE011010B50C00FFF7DAFFB2
:1050C0002000FFF7C3FF10BDF8B5CE46474680B5B8
:1050D00006000D1E914698460AD00A894A4507D314
:1050E00000280BD002894B449A4207DB002726E0B8
:1050F0003D480DF0E7FC1020404270E03B480DF0C9
:10510000E1FC102040426AE039480BF0D5FD3948F7
:105110000BF0D2FD4B46002B36D10027424539D04B
:10512000002D03D06A892B899A4245D0002E03D0E6
:10513000728933899A4248D04B46002B4ED07389EE
:1051400042469B1A6A89D21B934200D313004C46F5
:10515000994500D91C00706840446B68D919220039
:105160000DF0E0FAA0443F194B461C1BA3B2994630
:1051700072894245C8D36B89BB42C8D3CED82D684B
:10518000002DC7D00027C9E71B480DF09BFC10205D
:10519000404224E03668002E02D000239846BFE744
:1051A0004B46002B02D100239846B9E713480DF077
:1051B00089FC1020404212E02B68002BB6D010482A
:1051C0000DF080FC0620404209E03368002BB3D08C
:1051D0000B480DF077FC0620404200E00020C0BCE8
:1051E000B946B046F8BDC046DCAE011010AF0110A4
:1051F00040AF011058AF011074AF011084AF01101F
:1052000094AF011010B5002904D00A890023FFF7DC
:105210005BFF10BD02480DF055FC10204042F8E73E
:10522000CCAF0110F8B5CE46474680B5050088469C
:1052300091461900002805D04346002B0BD00027CB
:10524000002625E019480DF03DFC00273800C0BCC1
:10525000B946B046F8BD16480DF034FC0027F5E716
:105260006C89641AA4B2A14500D24C4643469819F1
:105270006B689C46614422000DF054FAE719BFB2F6
:105280003619B6B24B461C1BA3B2994600212D68B5
:105290004B46002BDAD0002DD8D00029E0D06B8906
:1052A0008B42DDD8C91A89B2F1E7C046E8AF0110D8
:1052B00008B0011010B5FFF7D9FC10BDF8B5CE4607
:1052C000474680B50500884616009146002806D05E
:1052D00000290AD0038993420DD300271DE0184806
:1052E0000DF0F0FB1020404223E016480DF0EAFBE1
:1052F000102040421DE014480DF0E4FB0120404224
:1053000017E012480BF0D8FC4346D9192200686810
:105310000DF008FA361B3F192D68002E06D0002D1F
:10532000EFD06C89B442EFD33400EDE74F4504D1A0
:105330000020C0BCB946B046F8BD05480BF0BCFC27
:105340002CB0011044B0011060B0011080B0011009
:1053500098B00110F0B583B00F00140019006B462F
:105360009A1DFFF7A7FF061E24D002896B46D88836
:1053700003199A4221DB7389984212D21A1A944275
:1053800012DD95B273689C4660442A0039000DF026
:10539000C9F9621B92B27919002A07D1002003B023
:1053A000F0BD07480BF088FC2500EBE73068FFF7FD
:1053B00085FFF4E701204042F1E701204042EEE79B
:1053C000B0B0011070B50B00150011891A00FFF77D
:1053D0004DFD041E04D02900FFF714FF002801D161
:1053E000200070BD01480BF067FCC046C8B001103A
:1053F00000B583B06B469A1DFFF738FC002809D032
:1054000042896B4606331B889A4206D94268D05CB3
:1054100003B000BD01204042FAE701204042F7E717
:1054200010B5FFF7E5FF002801DA002010BDC0B27B
:10543000FCE710B582B014006B469A1DFFF73AFFE7
:10544000002807D042896B4606331B889A4201D94F
:105450004268D45402B010BD10B5027A002A07D0B9
:10546000134B5C683C23E35C0133DBB29A4213D1FB
:10547000002906D0002811D00368002B10D000208E
:105480000BE000280ED00368002B0DD0084A5269AB
:1054900093420BD0080000E0002010BD0120FCE783
:1054A0000120FAE70120F8E70120F6E70120F4E700
:1054B0002C350020F0B5D6464F4680B583B00500A8
:1054C000244B1968586907F00AF807006B685E7A80
:1054D000214B1C6800239946019313E063699A46A7
:1054E000002B0DD06B6899461C4B2A002100A06947
:1054F000D04700281AD16B684B4528D10223994622
:105500000194E468002C1CD0237C9E42F8D1390021
:105510002000FFF7A1FF0028F2D0637CDB07DDD578
:105520000C4B1B6962689A42EAD1D7E7019B002BBA
:1055300005D0E268DA60084B1A68E2601C6001235B
:105540009946484603B0C0BCBA46B146F0BD0448CF
:105550000BF0B2FB2C3500203CDF00203C35002056
:10556000DCB0011010B5002814D00368002B11D056
:1055700000290FD00B68002B0CD0074B1B6800E0F4
:10558000DB68002B06D01A680468A242F8D10A68CA
:105590001A60F5E710BDC0463CDF002070470000F0
:1055A00010B5002903D106480BF086FBC06800281F
:1055B00005D0C36F8B42F9D10023C367F6E710BD56
:1055C00028B1011070B5051E04D0037D012B04D154
:1055D00001240DE008480BF06FFB08480BF06CFB52
:1055E000A200074BD35818682900FFF7D9FF0134F0
:1055F000032CF5D970BDC04650B101105CB101104B
:105600002CB6011010B50100037D012B03D003203F
:10561000FFF714F910BD01480BF04EFB74B10110F7
:1056200070B5041E09D0037D042B19D0072B1ED0A2
:10563000032B05D00025280070BD12480BF03CFB61
:1056400003F014F8051E01D105232375002D15D094
:105650006B1CF0D1638B0822134363830025EAE7B8
:1056600003F004F8051EF1D105232375EEE702F0DF
:10567000FDFF051EEAD109232375E7E7200003F0AB
:105680006DF9D8E750B1011010B5084B186800E06B
:105690002000002809D0C468438B1A07F8D50822D7
:1056A00093434383FFF7BCFFF2E710BD8CE100207A
:1056B00010B5FBF709FE8004800C034B9C46604448
:1056C000024B188010BDC04600C0FFFFB00E002086
:1056D00010B50100037D012B03D00220FFF7AEF8C7
:1056E00010BD01480BF0E8FA90B10110F8B50028A0
:1056F00016D0456A068DA919C26A448E231C0E4F26
:10570000BC4200D93B1C9BB2D318CB1A0BD5521B01
:105710000CD480235B029A420BD242850020F8BD54
:1057200006480BF0C9FA4685881AF8E70023438536
:10573000F4E703480BF0C0FAD0160000A4B1011042
:10574000C8B1011010B5041E13D0037D012B14D075
:10575000038D591889B20F4A914201D88B420FD953
:105760000C4B23852000FFF7C1FF0B4B984209D853
:1057700010BD0A480DF0A6F9FAE709480BF09CFAAB
:105780000185EFE7638B022213436383200003F05C
:10579000E5F8EDE7A02D0000670B0000E4B1011073
:1057A000FCB1011010B5041E08D04068002801D0DB
:1057B000FFF71EFB21000420FFF740F810BD10B5D5
:1057C00003E00468FFF7EEFF20000028F9D110BDC8
:1057D00070B5051E0DD00420FFF71EF8041E06D07C
:1057E000142229000CF09EFF6068FFF72FFC2000B8
:1057F00070BD01480BF060FA24B2011010B500280A
:1058000007D0054B054A10681A6894466044186032
:1058100010BD03480BF050FAAC0E00209CE10020B4
:1058200040B2011010B5002A0ED000290BD00B8E0B
:10583000002B08D0282B0AD9283B9BB21A1C834284
:1058400000D9021C90B210BD02480BF035FA0023BB
:10585000F4E7C0465CB2011010B50400406F0028A8
:1058600003D0FFF7ACFF0023636710BD10B5041E23
:1058700022D0037D002B1ED00A2B1CD0012B1AD066
:10588000806F002803D0FFF7B3FA0023A367636F8C
:10589000002B02D02000FFF7DFFF01235B422386AD
:1058A000E06EFFF78CFF206FFFF789FF0023E366B0
:1058B00023676822A35210BD01480DF003F9FAE7EF
:1058C00084B2011010B50C1E0BD000280CD0036858
:1058D0008B420CD0002B0FD0DA68A2420AD0130002
:1058E000F8E71C480BF0E8F91B480BF0E5F9DB681A
:1058F000036001E0E268DA600023E3602000FFF764
:10590000B5FF237D0A2B04D0012B02D0638BDA076D
:105910000FD4237D012B08D0E36E002B10D1236F11
:10592000002B10D1636F002B10D100232375E3826D
:1059300010BD022213436383200003F00FF8E8E751
:1059400006480BF0B9F906480BF0B6F905480BF01C
:10595000B3F9C046A0B20110BCB20110DCB2011014
:10596000F4B2011010B30110F0B5D6464F464646CA
:10597000C0B584B004000D0000281CD0037D012BAD
:105980001DD00A2B1ED0026D9046426A914690228D
:1059900086580769002B47D1C38A9A46002B4DD001
:1059A0002E4B1B68834215D0002B19D0DA68A24217
:1059B00014D01300F8E72A480DF084F82EE02948A7
:1059C0000BF07AF901002848FFF77CFF2000FFF771
:1059D0007FFE23E0DA68214B1A6001E0E268DA60BA
:1059E0000023E3609A460025206F002801D0FFF7CE
:1059F000E6FEE06E002801D0FFF7E1FE606F0028B0
:105A000001D0FFF7DCFE002D1AD12000FFF760FE69
:105A1000002E03D00D2149423800B04704B0E0BC4D
:105A2000BA46B146A846F0BDC38A9A4601000F485F
:105A3000FFF748FF0E4B01221A70D5E70025D3E788
:105A4000231D228B029252460192009323004A4664
:105A50004146200002F01AFFD7E7C04690E100203F
:105A600028B3011044B30110A0E100208CE1002014
:105A7000F3E1002010B50121FFF776FF10BD000013
:105A800010B50B4B1B680021002000E0DB68002BE9
:105A900008D0084A12681C6A121B8A42F6D3110009
:105AA0001800F3E7002801D0FFF7E4FF10BDC0465F
:105AB000A0E100209CE1002070B543B2002B02DB86
:105AC000002801D11FE07F200138C2B20E4B1B68B5
:105AD0000024002006E00D4A14681A6AA41A0A007D
